:10028400024E0000024C0000020E0000020C0000AE
:10029400020A000002080000203C100001020304CE
:1002A400050607080910111213141516171819203A
:1002B4002122232425262728293031323334353688
:1002C40037383940414243444546474849505152E2
:0702D40053545556575859C9
:0402DC007FE87E0336
:1002E000E4FDFCC3ED9FEC9E5015E4FBFA0BBB0054
:0F02F000010AEB64644A70F50DBD00010C80E457
:0102FF0022DC
:10000300E4F556F557E557455660030200DDC29007
:10001300D291D292D29320940E1202DC75560075BF
:1000230057017E007F012220950E1202DC755600D7
:100033007557017E007F022220960E1202DC755650
:10004300007557017E007F0322D290C291D292D2D3
:100053009320940E1202DC7556007557017E007FC3
:10006300042220950E1202DC7556007557017E009E
:100073007F052220960E1202DC7556007557017E0D
:10008300007F0622D290D291C292D29320940E1274
:1000930002DC7556007557017E007F072220950EFE
:1000A3001202DC7556007557017E007F08222096E8
:1000B3000E1202DC7556007557017E007F0922D2AD
:1000C30090D291D292C2933095030200081202DCBF
:0A00D3007556007557017E007F008E
:0100DD002200
:1000DE001200038E088F09D3E5099402E5089400F7
:1000EE004005E4F5B080E91200038E0A8F0BD3E5CC
:1000FE000B9403E50A94004005E4F5B080D2E509BF
:10010E0075F00AA4250B2410F8E6F5B01200038E44
:10011E000C8F0DD3E50D9406E50C94004005E4F527
:10012E00A080E91200038E0E8F0FE50D75F00AA464
:10013E00250F2410F8E6F5A01200038E4C8F4DD338
:10014E00E54D9406E54C94004005E4F58080E912F7
:10015E0000038E4E8F4FE54D75F00AA4254F2410E7
:05016E00F8E6F5802217
:1001FF00E4F550F551F552F553F554F5551200DE6F
:10020F002097FD7402250FF50FE4350EF50EE50F5F
:10021F00640A450E7030F50EF50F050DE50D7002F1
:10022F00050C6406450C701EF50CF50D050BE50B62
:10023F007002050A640A450A700CF50AF50B0509E8
:10024F00E50970020508E54D75F00AA4254F241045
:10025F00F8E6F580E50D75F00AA4250F2410F8E6F1
:10026F00F5A0E50975F00AA4250B2410F8E6F5B002
:05027F001202DC808B7F
:0300000002017387
:0C017300787FE4F6D8FD7581570201BAD0
:10017F000201FFE493A3F8E493A34003F68001F296
:10018F0008DFF48029E493A3F85407240CC8C33381
:10019F00C4540F4420C8834004F456800146F6DF50
:1001AF00E4800B0102040810204080900284E47E5A
:1001BF00019360BCA3FF543F30E509541FFEE49345
:1001CF00A360010ECF54C025E060A840B8E493A30C
:1001DF00FAE493A3F8E493A3C8C582C8CAC583CA37
:1001EF00F0A3C8C582C8CAC583CADFE9DEE780BEEF
:0102DB000022
:00000001FF
