:1000FD00203C0A000102030405060708091011122D
:10010D001314151617181920212223242526272804
:10011D002930313233343536373839404142434452
:0F012D0045464748495051525354555657585913
:10013D00E4FFFEF54CF54D758902E4F58CD28C305B
:0F014D008DFDC28D0FBF00010EBE0EEBBF10E87F
:01015C002280
:10008F00E4F546F547740A2547F8E6F5B0E4F54878
:10009F00F549740A2549F8E6F5A0E4F54AF54B74DD
:1000AF000A254BF8E6F58012013D054BE54B700232
:1000BF00054AC3943CE54A940040E4E4F54AF54B05
:1000CF000549E54970020548C3943CE54894004052
:1000DF00C1E4F548F5490547E54770020546C39465
:0C00EF000CE5469400409EE4F546F54701
:0200FB008092F1
:03015D0002008F0E
:03000000020003F8
:0C000300787FE4F6D8FD75814D02004ABC
:10000F0002015DE493A3F8E493A34003F68001F2A9
:10001F0008DFF48029E493A3F85407240CC8C333F2
:10002F00C4540F4420C8834004F456800146F6DFC1
:10003F00E4800B01020408102040809000FDE47E54
:10004F00019360BCA3FF543F30E509541FFEE493B6
:10005F00A360010ECF54C025E060A840B8E493A37D
:10006F00FAE493A3F8E493A3C8C582C8CAC583CAA8
:10007F00F0A3C8C582C8CAC583CADFE9DEE780BE60
:01013C0000C2
:00000001FF
